:020000040800F2
:100000006007002049010008F71F0008BB1B00081B
:10001000F51F00086702000819270008000000000B
:10002000000000000000000000000000FB1F0008AE
:100030006902000800000000F91F0008FD1F000809
:100040006301000863010008630100086301000800
:1000500063010008630100086301000863010008F0
:1000600063010008630100086301000863010008E0
:1000700063010008630100086301000863010008D0
:1000800063010008630100086301000863010008C0
:1000900063010008630100086301000863010008B0
:1000A0006301000861200008630100086301000883
:1000B0006301000863010008630100086301000890
:1000C0006301000863010008630100086301000880
:1000D00063010008F5260008012700080D27000825
:1000E0006301000863010008630100086301000860
:1000F0006301000863010008630100086301000850
:10010000630100086301000863010008630100083F
:10011000152300082123000863010008630100087B
:10012000630100086301000863010008630100081F
:10013000DFF810D000F042F8004800474D290008D1
:10014000AFF300806007002006488047064800475C
:10015000FEE7FEE7FEE7FEE7FEE7FEE7FEE7FEE777
:10016000FEE7FEE75F20000831010008D2B201E09F
:1001700000F8012B491EFBD270470022F6E710B5AC
:1001800013460A4604461946FFF7F0FF204610BD05
:1001900030B50B46014600202022012409E021FA57
:1001A00002F59D4205D303FA02F5491B04FA02F554
:1001B0002844151EA2F10102F1DC30BD064C074DAA
:1001C00006E0E06840F0010394E807009847103427
:1001D000AC42F6D3FFF7B0FFE42C0008042D000872
:1001E000F8B501240D4606460B4602462146204638
:1001F000009400F068F80A2000F088F92B46324697
:1002000000210220009400F05EF80A2000F07EF940
:100210002B46324601210320009400F054F80A20B6
:1002200000F074F92B46324600210420009400F0BF
:100230004AF80A2000F06AF9012000F02EF80A209E
:1002400000F064F9022000F028F80A2000F05EF9BE
:10025000032000F022F80A2000F058F9BDE8F84029
:10026000042000F01AB8FEE770471FB50022009284
:100270008DF80000FE208DF8010098208DF8020016
:1002800001926B208DF803108DF804000292039206
:100290000521684602F0FAFC1FBD1FB50021009140
:1002A0008DF80000FF208DF8010066208DF8020017
:1002B0006B200191029103918DF80300042168469F
:1002C00002F0E4FC1FBD7FB5002500958DF800000D
:1002D000F6208DF8010001958DF80210089C100A97
:1002E0008DF804208DF803008DF805308DF8064058
:1002F0006B208DF80700029503950821684602F0EF
:10030000C5FC7FBD72B6FEE7F8B501240D46064672
:100310000B460246002120460094FFF7D4FF0A2036
:1003200000F0F4F82B463246012102200094FFF73A
:10033000CAFF0A2000F0EAF82B46324600210320CB
:100340000094FFF7C0FF0A2000F0E0F82B46324689
:10035000012104200094FFF7B6FF0A2000F0D6F830
:100360000120FFF79AFF0A2000F0D0F80220FFF7E3
:1003700094FF0A2000F0CAF80320FFF78EFF0A203E
:1003800000F0C4F80420FFF788FFBDE8F8400A2019
:1003900000F0BCB810B590F821100022022905D059
:1003A0000421816380F82020012010BD01680B68C2
:1003B00023F00E030B6001680B6823F001030B6050
:1003C00090F84030C46B012101FA03F3636080F8B8
:1003D000211080F82020104610BD00002DE9F05FAC
:1003E00090F821100024022903D004218163012404
:1003F00085E001680A6822F00E020A6001680A6856
:1004000022F001020A603F4E3E4FB215DFF8F4C001
:10041000DFF8F090DFF8ECA0DFF8E8B0DFF8E4E018
:100420000168783F13011502ACF1640CA9F1500981
:10043000AAF13C0AABF1280BAEF1140E4FF4801870
:10044000B14227D9B9420ED0614512D049451DD0DD
:10045000514518D0594518D0714501D1424615E093
:10046000294EB14201D1012210E0274E1436B1428B
:1004700001D110220AE0244E2836B14206D0224A89
:100480003C32914201D11A4600E02A461E49091F1A
:100490000A602BE0B94213D0614517D0494522D0FC
:1004A00051451DD059451DD0714501D142461AE034
:1004B000B14202D14FF0807215E0134EB14201D12A
:1004C000012210E0104E1436B14201D110220AE090
:1004D0000D4E2836B14206D00B4A3C32914201D132
:1004E0001A4600E02A46074980394A60012180F80F
:1004F0002110002180F82010416B01B1884720466F
:10050000BDE8F09F800002400804024070B5044638
:1005100000F018F90546601C02D004480078044435
:1005200000F010F9401BA042FAD370BD000000207B
:100530002DE9F84FDFF8C8910024A9F1040B2346F8
:100540000F2709F1040AABF1040ED1E00125A54003
:1005500006EA0502AA4276D1DFF8A8C14E68A6EBEA
:100560000C0866452BD00DDC032E34D005DC36B3E9
:10057000012E19D0022E2FD11BE0112E16D0122ED3
:100580002AD119E0B8F5881F19D006DCB8F5803FEC
:1005900015D0B8F5801F1FD111E0B8F5001F0ED09F
:1005A000B8F5041F18D10AE0CB6815E0CB681B1D15
:1005B00012E0CB6808330FE0CB680C330CE08B689B
:1005C0002BB1012B4FF0080303D0456104E0042355
:1005D00002E0056100E00023FF2A01D8064601E0A1
:1005E00000F104064FEA840501D9A5F12005D6F8EB
:1005F000008007FA05FC28EA0C0803FA05F548EA2A
:100600000508C6F800804D68ED0070D53E4DAE6916
:1006100046F00106AE61AD6924F0030605F0010560
:1006200000953A4D06EB050CDCF80850A607360F8E
:1006300007FA06F825EA0805DFF8D480404503D11B
:100640004FF0000825E052E0DFF8C880404502D1B5
:100650004FF001081DE0DFF8C080404502D14FF0A7
:10066000020816E0DFF8B480404502D14FF00308DD
:100670000FE0DFF8AC80404502D14FF0040808E0FD
:10068000DFF8A080404502D14FF0050801E04FF0AF
:10069000060808FA06F848EA0508CCF808804D680C
:1006A000D9F80060ED024D4601D5164300E09643AF
:1006B0002E604D68DAF80060AD02554601D516434C
:1006C00000E096432E604D68DBF80060AD035D46A8
:1006D00001D5164300E096432E604D68DEF80060B9
:1006E000ED03754601D5164300E096432E60641C69
:1006F0000A681646E2407FF429AFBDE8F88F000093
:1007000008040140000011100010024000000140E8
:1007100000080140000C014000100140001401409D
:1007200000180140001C0140C26821EA02030A408F
:1007300043EA0241016170470AB10161704709044F
:10074000FBE70000014880687047000000000020BF
:1007500070B5040025D094F83D00002520B984F838
:100760003C50204600F0B8F8242084F83D00206872
:10077000016821F0010101602068016841F4004135
:1007800001602068016821F40041016000F00AFA6C
:100790004D4A6168914201D84C4900E04C49884279
:1007A00001D2012070BD4B492368B0FBF1F15E68B6
:1007B00026F03F060E435E606368934206D94FF40D
:1007C000967359434FF47A73B1FBF3F12368491CD4
:1007D0001E6A26F03F06314319626168914210D8C3
:1007E0004900401EB0FBF1F2521CC2F30B02042A76
:1007F00001D2042022E0B0FBF1F0401CC0F30B005A
:100800001CE0A268F2B301EBC10303EB0116431E27
:10081000B3FBF6F35B1C43F480431B0549D092B352
:1008200001EBC10202EB0111401EB0FBF1F0401CD4
:10083000C0F30B0040F4804040F400402168CA69D6
:100840004CF6FF739A431043C861D4E90710014383
:100850002068026822F0C00211430160D4E903015C
:1008600001432068826848F2FF339A431143816054
:10087000D4E9050108432168CA6822F0FF02104349
:10088000C86001E00EE016E02068016841F0010157
:1008900001602564202084F83D00256384F83E50E3
:1008A000002070BD01EB4106431EB3FBF6F35B1C59
:1008B000B3E70120C2E701EB4101401EB0FBF1F0BC
:1008C000401CC0F30B00B7E7A086010080841E0027
:1008D00000093D0040420F0010B586B00021009194
:1008E00001910291039100681349884222D1134C6F
:1008F000A06940F00800A061A069694600F0080006
:1009000004904FF440700090122001900320039057
:100910000B48FFF70DFE0B48416841F0E06141F0E4
:1009200002014160E06940F40010E061E06900F418
:100930000010049006B010BD0054004000100240AA
:10094000000C014000000140024881680278114417
:100950008160704700000020074810B5016841F031
:1009600010010160032000F075F80F2000F006F878
:1009700000F024F8002010BD0020024070B50D4D9D
:1009800004464FF47A712878B1FBF0F00A490968FF
:10099000B1FBF0F000F0DCFA48B9102C07D20022CD
:1009A0002146501E00F036F800206C6070BD01201A
:1009B00070BD0000000000200C0000200C4808B5AD
:1009C000816941F001018161816901F001010091BA
:1009D000C16941F08051C161C06900F08050009050
:1009E0000448416821F0E06141F00071416008BDB8
:1009F0000010024000000140002809DB00F01F0247
:100A0000012191404009800000F1E020C0F8001170
:100A100070470000F0B40E4B1B680C46C3F3022372
:100A2000C3F10705042D00D90425191D072901D29A
:100A3000002300E0DB1E012606FA05F1491E2140D5
:100A400099409E40761E16403143F0BC01F076BEC0
:100A50000CED00E0064900F0070208684FF6FF03BE
:100A6000184040EA0220034A104308607047000023
:100A70000CED00E00000FA052DE9F0470F460500F7
:100A800061D0434E306800F00700B84209D23068A8
:100A900020F0070038433060306800F00700B842AB
:100AA00051D128683B4C810712D5400703D56068B7
:100AB00040F4E06060602878000703D5606840F487
:100AC000605060606068A96820F0F00008436060D2
:100AD0002878C00728D06868012810D0216802282B
:100AE00010D0890700292EDA616821F00301014343
:100AF0006160FFF727FE804641F288390DE02168EA
:100B00008903EFE78901EDE7FFF71CFEA0EB080181
:100B1000494502D90320BDE8F0876068696800F0A4
:100B20000C00B0EB810FEFD1306800F00700B84245
:100B30000BD9306820F0070038433060306800F08F
:100B40000700B84201D00120E5E72878400705D525
:100B50006068E96820F4E060084360602878000776
:100B600006D56068296920F4605040EAC1006060E1
:100B700000F038F86168084AC1F30311515CC840BD
:100B80000649086006480068FFF7F8FE0020C2E743
:100B90000020024000100240CA2C00080C00002077
:100BA000040000200448054900684968044AC1F36C
:100BB0000221515CC84070470C0000200010024028
:100BC000DA2C00080448054900684968044AC1F362
:100BD000C221515CC84070470C0000200010024048
:100BE000DA2C00080E4A51680E4801F00C03042B61
:100BF00011D0082B0FD10C48C1F38343C903C05C4B
:100C00000AD55168084AC1F34041921E515C054A19
:100C10005043B0FBF1F0704704494843704700006F
:100C20000010024000127A00BA2C000800093D00B2
:100C30002DE9F84F040070D02078C04DC00749D08E
:100C40006868C0F38100012807D06868C0F381009C
:100C5000022809D16868C00306D52868800339D501
:100C600060680028E7D035E06068B0F5803F0BD0C1
:100C700010B1B0F5A02F11D0286820F48030286082
:100C8000286820F4802002E0286840F48030286042
:100C9000606890B1FFF756FD06460AE0286840F408
:100CA00080202860F0E700BFFFF74CFD801B642820
:100CB00073D828688003F7D50CE0FFF743FD06469C
:100CC00005E000BFFFF73EFD801B6428F0D82868D0
:100CD0008003F7D420789A4E80074FF001094FF037
:100CE000000839D5686810F00C0F07D06868C0F3A9
:100CF0008100022809D16868C00306D428688007EB
:100D000014D52069012808D110E02069B0B1C6F8D7
:100D10000090FFF717FD074605E00AE1FFF712FD17
:100D2000C01B0228C4D828688007F7D528686169E5
:100D300020F0F80040EAC10028600DE0C6F800800D
:100D4000FFF700FD074604E0FFF7FCFCC01B02288C
:100D500023D828688007F7D4207800072CD5794855
:100D6000A169D9B1C0F80090FFF7ECFC074604E098
:100D7000FFF7E8FCC01B02280FD8686A8007F7D588
:100D800071484FF4FA510068B0FBF1F0009000BFD9
:100D90000098411E0091FAD20EE080E0C0F8008079
:100DA000FFF7D0FC074604E0FFF7CCFCC01B02288D
:100DB00075D8686A8007F7D42078400760D5E8695D
:100DC0000027C00008D4E86940F08050E861E86975
:100DD000012700F0805000905C480168C90513D4D9
:100DE0000168834641F480710160FFF7ABFC8246E5
:100DF00006E000BFFFF7A6FCA0EB0A0064284ED86F
:100E0000DBF80000C005F5D5E06801280AD008B17C
:100E1000052813D0286A20F001002862286A20F0F3
:100E2000040002E0286A40F001002862E06841F214
:100E3000883B98B1FFF786FC82460BE0286A40F0B9
:100E400004002862EEE700BFFFF77CFCA0EB0A017C
:100E500059455AD8286A8007F6D50CE0FFF772FC8E
:100E6000824605E0FFF76EFCA0EB0A0159454CD81D
:100E7000286A8007F6D41FB1E86920F08050E86145
:100E8000E06988B36968C1F38101022944D002286E
:100E9000C6F8608004D0FFF755FC044638E034E023
:100EA000FFF750FC074604E0FFF74CFCC01B02288C
:100EB0002BD828688001F7D4206AB0F5803F05D18F
:100EC0006868A16820F4003008436860D4E908012C
:100ED0000843696821F4741108436860C6F860909B
:100EE000FFF730FC044606E025E000BFFFF72AFCD0
:100EF000001B022809D828688001F7D51BE000BF35
:100F0000FFF720FC001B022802D90320BDE8F88F60
:100F100028688001F4D40EE00128F7D06868226ABE
:100F200000F48031914204D1616A00F4701088426B
:100F300001D00120EAE70020E8E7000000100240AD
:100F400000004242800442420C0000200070004039
:100F500010B5401EB0F1807F01D3012010BD4FF0CD
:100F6000E02460610F21601701F0E8FB0020A06120
:100F700007202061002010BD7047704770B590F8C1
:100F80003C20012A2CD0012480F83C40022280F829
:100F90003D2003685A689D6822F070060A68324353
:100FA0005A60104B02689A420ED00F4B9A420BD0F7
:100FB000B2F1804F08D00D4B9A4205D00C4B9A42AB
:100FC00002D00C4B9A4204D1496825F080031943A2
:100FD000916080F83D40002180F83C10084670BDCB
:100FE000022070BD002C014000340140000400408C
:100FF00000080040000C004010B5040003D094F835
:101000003D0010B107E0012010BD002084F83C0035
:10101000204600F01FF8022084F83D00211D2068C2
:1010200001F024F8012084F8460084F83E0084F89A
:101030003F0084F8400084F8410084F8420084F8BE
:10104000430084F8440084F8450084F83D00002003
:1010500010BD000008B51C4A01681C48914211D11E
:10106000816941F4006181618069002200F40060BF
:10107000009011461920FFF7CDFCBDE8084019206B
:10108000FFF7BABCB1F1804F0BD0114A914210D199
:10109000C16941F00201C161C06900F00200009025
:1010A00008BDC16941F00101C161C06900F00100E2
:1010B000F5E7084A9142F3D1C16941F00401C161E9
:1010C000C06900F00400EAE7002C01400010024073
:1010D000000400400008004090F83D10012901D0B4
:1010E00001207047022180F83D100168CA6842F073
:1010F0000102CA6000680E4988420ED00D4988423C
:101100000BD0B0F1804F08D00B49884205D00B4975
:10111000884202D00A49884204D1816801F007015F
:10112000062903D0016841F00101016000207047E9
:10113000002C014000340140000400400008004041
:10114000000C004070B5044690F83C0000250128D2
:1011500017D0012684F83C60022084F83D00206806
:10116000826822F0770222F47F4282600868502869
:1011700038D00DDC20284FD005DC90B3102811D1D9
:101180004AE0022070BD302846D040280AD13BE01A
:1011900060282FD070280DD0B0F5805F03D0B0F557
:1011A000005F12D0012584F83D60002084F83C00E7
:1011B000284670BDCB68D1E90121206800F0B1FF5D
:1011C0002068816841F0770109E0CB68D1E901210D
:1011D000206800F0A6FF2068816841F480418160AA
:1011E000E1E719E0CA684968206801F06FF850210A
:1011F000206806E0CA684968206801F078F8602134
:10120000206800F098FFCEE7CA684968206801F0BE
:101210005DF840212068F4E7226801461046F0E7B7
:1012200070472DE9F04104460068C66805694FF033
:101230000007A90713D5B10711D5F91E01610120D7
:101240002077206880698007204602D0FFF7E8FFFA
:1012500004E000F0C5F8204600F057F9277768074A
:1012600016D5700714D521686FF0040008610220BC
:1012700020772068806910F4407F204602D0FFF775
:10128000CFFF04E000F0ACF8204600F03EF92777ED
:10129000280715D5300713D521686FF008000861BD
:1012A000042020772068C0698007204602D0FFF71D
:1012B000B7FF04E000F094F8204600F026F9277705
:1012C000E80616D5F00614D521686FF01000086105
:1012D000082020772068C06910F4407F204602D0A3
:1012E000FFF79EFF04E000F07BF8204600F00DF9C8
:1012F0002777E80708D0F00706D021686FF00100D3
:101300000861204600F05CF9280608D5300606D5AD
:1013100021686FF0800008612046FFF72DFE680607
:1013200008D5700606D521686FF040000861204698
:1013300000F047F9A8060AD5B00608D521686FF075
:10134000200008612046BDE8F041FFF716BEBDE869
:10135000F081000000B585B000210091019102915B
:101360000391026819480221B2F1804F1CD0184B3A
:101370009A4217D1826942F020028261806903910A
:1013800000F0200004904FF47040CDE90001694660
:101390001048FFF7CDF81048416841F0E06141F492
:1013A0008051416005B000BD826942F00402826153
:1013B0008069039100F0040004900F20CDE9000142
:1013C00069460648FFF7B4F8ECE700000010024059
:1013D00000080040001401400000014000080140E6
:1013E000704770B5044690F83C0000260D46012871
:1013F0000FD0012084F83C006AB1042A1DD0082ACD
:101400002FD00C2A3FD00126002084F83C00304623
:1014100070BD022070BD206800F096FE20688169D2
:1014200041F0080181612068816921F00401816136
:10143000206881692A69114311E0206800F0B4FE38
:101440002068816941F4006181612068816921F42B
:1014500080618161206881692A6941EA0221816194
:10146000D2E7206800F0D6FE2068C16941F008018B
:10147000C1612068C16921F00401C1612068C169AE
:101480002A69114311E0206800F0F8FE2068C16964
:1014900041F40061C1612068C16921F48061C161CA
:1014A0002068C1692A6941EA0221C161ACE710B52F
:1014B000040003D094F83D0010B107E0012010BDF6
:1014C000002084F83C00204600F01EF8022084F83A
:1014D0003D00211D206800F0C9FD012084F8460070
:1014E00084F83E0084F83F0084F8400084F841000E
:1014F00084F8420084F8430084F8440084F84500EE
:1015000084F83D00002010BD7047704710B50446B8
:10151000022249B104290ED0082913D094F84100C1
:10152000012816D0012010BD94F83E000128F9D101
:1015300084F83E200FE094F83F000128F2D184F8AF
:101540003F2008E094F840000128EBD184F84020C7
:1015500001E084F841200122206800F0D5FD134904
:101560002068134A884201D0904203D1436C43F46F
:1015700000434364206888420DD090420BD0B0F104
:10158000804F08D00B49884205D00B49884202D0D1
:101590000A49884204D1816801F00701062903D075
:1015A000016841F001010160002010BD002C0140E4
:1015B000003401400004004000080040000C0040DE
:1015C0007047704770477047F8B50168044608686F
:1015D000CA684B6910F00F0F4FF0000559D003F0A7
:1015E000010602F49077374365D0C10705D0D105D5
:1015F00003D5616C41F001016164410705D5D9074C
:1016000003D0616C41F002016164810705D5D907FF
:1016100003D0616C41F004016164010707D502F059
:101620002001314303D0616C41F008016164616CB9
:1016300000293AD0800604D5900602D5204600F055
:10164000A4FE20684069616CC0F38010090700D4D3
:1016500060B3204600F072FE20684069400621D544
:101660002068143050E8001F21F0400140E80012CB
:10167000002AF5D1E06BA8B16D494163E06BFEF73C
:10168000ADFE002811D0E06B416B01B0BDE8F04029
:10169000084783060FD593060DD52046BDE8F840D0
:1016A00000F073BE2046FFF78EFFF8BD2046FFF71F
:1016B0008AFF6564F8BD266B2023012E7CD1C60607
:1016C0007AD5D60678D508684868009048694FF002
:1016D0000206400640D5E16B086840680004000C33
:1016E000E8D0A28D8242E5D9E085886920282DD0F6
:1016F00020680C3050E8001F21F4807140E800128F
:10170000002AF5D12068143050E8001F21F00101B3
:1017100040E80012002AF5D12068143050E8001F7C
:1017200021F0400140E80012002AF5D184F842304F
:10173000256320680C3050E8001F21F0100140E8BC
:101740000012002AF5D1E06BFEF724FE6663A08D3F
:10175000E18D401A81B22AE0A08DE18D401A81B25C
:10176000E08D0028A6D00029A4D022680C3252E8CF
:10177000000F20F4907042E80007002FF5D1206898
:10178000143050E8002F22F0010240E80027002F1B
:10179000F5D184F84230256320680C3050E8002FE2
:1017A00022F0100240E80023002BF5D166632046AA
:1017B000FFF708FFF8BDFFE705062BD5150629D56D
:1017C00094F841002128F5D1A068B0F5805F01D1DF
:1017D0002069B0B1206A411C21622168007848600C
:1017E000E08C401E0004000CE084E3D12068C16856
:1017F00021F08001C1602068C16841F04001C160F2
:10180000D8E7206A0088C0F308004860206A801C7E
:101810002062E5E74006CDD55006CBD5CA68204604
:1018200022F04002CA6084F8413000F0C5F9C1E7F7
:101830002D23000870B5040004D094F84100002561
:1018400010B106E0012070BD84F84050204600F041
:1018500023F8242084F841002068C16821F4005155
:10186000C160204600F0F2FD2068016921F490413A
:1018700001612068416921F02A0141612068C16845
:1018800041F40051C1606564202084F8410084F86F
:1018900042006563002070BDF0B585B0002400945F
:1018A000019402940394D0F800C07648744F051553
:1018B00002210322744BC614BC4525D1C76947F4E5
:1018C0000027C761C76907F400270497876947F0B5
:1018D000100787618069CDE9005100F01000CDE963
:1018E000032069461D461846FEF722FECDE9006436
:1018F000694628460294FEF71BFE0022114634205A
:10190000FFF788F8342032E0DFF880E1604FF445DB
:1019100031D1C56945F48015C561C56905F48015E7
:101920000495856945F010058561856905F0100508
:101930000495856945F0200585618069039200F072
:1019400020000490B814CDE9000169461846FEF75E
:10195000EFFD0420CDE90004694638460294FEF705
:10196000E7FD002211463520FFF754F83520FFF738
:1019700043F805B0F0BD474B9C4527D1836943F43C
:1019800080438361836903F480430493836943F054
:10199000040383618069404E00F0040004904FF41A
:1019A0000070CDE90001039269463046FEF7C0FDA4
:1019B000CDE90054694630460294FEF7B9FD002295
:1019C00011462520FFF726F82520D0E7334B9C450C
:1019D0002DD1C36943F40033C361C36903F40033F9
:1019E0000493836943F0200383618069039200F0CC
:1019F000200004902020CDE9000169463846FEF71A
:101A000097FD4020CDE90004694638460294FEF770
:101A10008FFD2348416841F0E06141F008014160D9
:101A2000002211462620FEF7F5FF26209FE71D4BDA
:101A30009C459ED1C36943F48023C361C36903F409
:101A400080230493836943F0080383618069CDE9AF
:101A5000005100F00800CDE90320134D69462846E7
:101A6000FEF766FDCDE90064694628460294FEF75C
:101A70005FFD002211462720FEF7CCFF272076E7E6
:101A8000004C004000100240001001400050004097
:101A900000140140003801400008014000440040AB
:101AA0000000014000480040000C014090F8423026
:101AB000202B01D00220704721B11AB1002303630B
:101AC00000F020BD0120704730B40F490F4C8A78D8
:101AD0000B78A354521C8A70CA7832344B78A354C2
:101AE000521CCA700A4A0168914202D10122064979
:101AF00005E0084A914205D103490122491C30BC46
:101B0000FFF7D4BF30BC704710000020FC0200205B
:101B100000440040004800402DE9F843044690F896
:101B20004100984616460D46202802D00220BDE806
:101B3000F88385B17EB100206064212084F84100E3
:101B4000FEF700FEA6848146E684A0682027B0F553
:101B5000805F02D003E00120E9E7206910B12E4642
:101B600000250EE000260CE08021204600F0E5FC78
:101B7000A8B9C6B116F8010B21684860E08C401E78
:101B8000E084E08C4B464FF00002CDF80080002846
:101B9000EAD14FF04001204600F0CFFC40B184F87C
:101BA00041700320C3E735F8020BC0F30800E3E7F8
:101BB00084F841700020BAE77047FEE730B585B081
:101BC00000241C480094019402940394816941F01C
:101BD00004018161816901F004010491816941F08E
:101BE00008018161816901F008010491816941F076
:101BF00020018161816901F020010491816941F036
:101C00001001816180690C4D00F0100004900122E8
:101C100004212846FEF790FD042000900120CDE924
:101C200001040220039069462846FEF781FC05B0B6
:101C300030BD000000100240000C01400D4810B5FE
:101C40000B4901600C49416000214FF480428160E2
:101C5000C0E9031241618161C1610162FEF778FD53
:101C6000002803D0BDE81040FEF74CBB10BD0000BB
:101C70000054004020000020801A060010B586B0F5
:101C80000024174800940194029403940494134987
:101C9000059401604721C0E9011442F20F71C0E9C7
:101CA000031444618461FFF7A7F908B1FEF72AFB2A
:101CB0004FF48050009069460948FFF743FA08B195
:101CC000FEF720FB049404A905480594FFF756F994
:101CD000002801D0FEF716FB06B010BD002C014015
:101CE0007400002010B58EB0002407940894099465
:101CF0000A940B941C2168460C94FEF73EFA2B487C
:101D00004FF08041016040F2CF21C0E9011440F260
:101D1000CF71C0E9031480218161FFF76DF908B12B
:101D2000FEF7F0FA4FF48050079007A91F48FFF71D
:101D300009FA08B1FEF7E6FA1C48FFF7B8FB08B14C
:101D4000FEF7E0FA0B940BA918480C94FFF716F96C
:101D500008B1FEF7D7FA6020CDE900040294002212
:101D6000694612480494FFF73CFB08B1FEF7CAFA33
:101D7000042269460D48FFF734FB08B1FEF7C2FAAA
:101D8000082269460948FFF72CFB08B1FEF7BAFAAA
:101D90000C2269460548FFF724FB08B1FEF7B2FAAA
:101DA0000248FFF7D7FA0EB010BD0000BC000020BB
:101DB00010B586B000241648009401940294039450
:101DC000049412490594C0E900144FF6FF71C0E96C
:101DD000024104618461FFF70FF908B1FEF792FA3E
:101DE0004FF48050009069460948FFF7ABF908B1FD
:101DF000FEF788FA049404A905480594FFF7BEF895
:101E0000002801D0FEF77EFA06B010BD00040040A5
:101E10000401002010B58EB00024079408940994A2
:101E20000A940B941C2168460C94FEF7A6F92A48E4
:101E30002849C0E900144FF6FF71C0E9024104616E
:101E40008461FFF7D9F808B1FEF75CFA4FF48050CF
:101E5000079007A92048FFF775F908B1FEF752FA75
:101E60001D48FFF724FB08B1FEF74CFA0B940BA9B1
:101E700019480C94FFF782F808B1FEF743FA602086
:101E8000CDE9000402940022694613480494FFF748
:101E9000A8FA08B1FEF736FA042269460E48FFF7A1
:101EA000A0FA08B1FEF72EFA082269460A48FFF7A1
:101EB00098FA08B1FEF726FA0C2269460648FFF7A1
:101EC00090FA08B1FEF71EFA0348FFF743FA0EB086
:101ED00010BD0000000800404C0100200C4810B567
:101EE0000A4901604FF4E1314160002181600C2218
:101EF000C160C0E904128161C161FFF79BFC002849
:101F000003D0BDE81040FEF7FDB910BD004C004005
:101F1000940100200C4810B50A4901604FF4E131EA
:101F20004160002181600C22C160C0E9041281611E
:101F3000C161FFF77FFC002803D0BDE81040FEF729
:101F4000E1B910BD00500040DC0100200C4810B584
:101F50000A4901604FF4E1314160002181600C22A7
:101F6000C160C0E904128161C161FFF763FC002810
:101F700003D0BDE81040FEF7C5B910BD00380140E0
:101F8000240200200C4810B50A4901604FF4165194
:101F90004160002181600C22C160C0E904128161AE
:101FA000C161FFF747FC002803D0BDE81040FEF7F1
:101FB000A9B910BD004400406C0200200C4810B5C7
:101FC0000A4901604FF4E1314160002181600C2237
:101FD000C160C0E904128161C161FFF72BFC0028D8
:101FE00003D0BDE81040FEF78DB910BD0048004099
:101FF000B4020020FEE7FEE770477047FEF7A4BC7E
:1020000030B58FB028216846FEF7B7F814210AA82A
:10201000FEF7B3F801210804CDE900100024029472
:1020200002250491CDE907504FF4E010099068466D
:10203000FEF7FEFD08B172B6FEE70F20CDE90A05F6
:102040004FF48060CDE90C4002210AA80E94FEF7FF
:1020500013FD002801D072B6FEE70FB030BD704707
:102060000148FFF7DEB8000074000020F0B50268F8
:10207000204C214D214E224F224B4FF0804CA0424C
:1020800009D0984207D0604505D0A84203D0B0429D
:1020900001D0B84204D122F0700E4A6842EA0E0222
:1020A000A04209D0984207D0604505D0A84203D08D
:1020B000B04201D0B84203D122F44075CA682A4325
:1020C0004D6922F080022A4302608A68C2620A686F
:1020D0008262A04201D0984201D1096901630121C5
:1020E00041610169C90703D0016921F00101016162
:1020F000F0BD0000002C014000040040000800403A
:10210000000C00400034014010B501F01F03012114
:10211000046A99408C430462016A9A401143016247
:1021200010BD10B5846842EA032224F47F440A43B8
:102130002243826010BD826822F070020A4342F09E
:102140000701816070470000F0B5036A026A22F05F
:102150000102026242688469124E24F073050C6821
:102160002C4323F002058B682B430D4DA84201D070
:10217000B04205D123F00807CB683B4323F00403AA
:10218000A84201D0B04205D14D6922F440721543F6
:102190008A692A4342608461496841630362F0BDF1
:1021A000002C014000340140F0B5026A036A23F0BC
:1021B00010030362436884690D6824F4E64444EA2A
:1021C00005248D6822F0200242EA05120F4D104EC0
:1021D000A84201D0B04206D1CF6822F0800242EA84
:1021E000071222F04002A84201D0B04207D14D6947
:1021F00023F4406343EA85038D6943EA8503436022
:102200008461496881630262F0BD0000002C0140D6
:1022100000340140F0B5026A036A23F4807303625C
:102220004368C46922F4007224F073050C68124EEE
:102230002C438D6842EA05220E4DA84201D0B042DF
:1022400006D1CF6822F4006242EA072222F48062BB
:10225000A84201D0B04207D14D6923F4405343EA6C
:1022600005138D6943EA05134360C4614968C1637E
:102270000262F0BD002C01400034014030B5046A18
:10228000026A22F4805202624268C3690D6823F434
:10229000E64343EA05238D6824F4005444EA0534F8
:1022A000084DA84202D0084DA84204D14D6922F43D
:1022B000804242EA85124260C36149680164046257
:1022C00030BD0000002C01400034014010B5036A0D
:1022D000046A24F001040462846924F0F00444EAEE
:1022E000021423F00A020A438461026210BD10B591
:1022F000036A046A24F010040462846923F0A003D2
:1023000024F4704444EA023243EA0111826101621A
:1023100010BD00000148FFF757B9000094010020EC
:102320000148FFF751B90000DC01002010B5406AF8
:102330000021C185C184FFF746F910BD01680C3149
:1023400051E8002F22F4907241E80023002BF5D1D0
:102350000168143151E8002F22F0010241E8002306
:10236000002BF5D1016B012909D101680C3151E82D
:10237000002F22F0100241E80023002BF5D120218C
:1023800080F8421000210163704708B590F84210B0
:10239000222901D0022008BD82684FF480539A425E
:1023A00001D1016921B1816A9A421BD04AB10AE088
:1023B0000268816A5268C2F308020A80816A891C35
:1023C00008E0026972B10268526802F07F020A7086
:1023D000816A491C8162C18D491E0904090CC185AD
:1023E00003D01BE002685268F1E70168CA6822F076
:1023F0002002CA600168CA6822F48072CA6001685B
:102400004A6922F001024A61202180F8421000212D
:102410004163026B012A03D0FFF756FB002008BD81
:10242000016301680C3151E8002F22F0100241E8ED
:102430000023002BF5D101680A68D20602D50A688C
:1024400049680091818DFFF7BDF8E7E770B5044654
:1024500000680169E26821F440511143016121697A
:10246000A0680843616908432168CA6841F20C63A7
:102470009A430243CA6020684169A26921F440710D
:10248000114341611E492068884202D1FEF79AFB40
:1024900001E0FEF787FB00EBC00101EB0012606872
:1024A00064218000B2FBF0F3B3FBF1F36FF0180688
:1024B0007343B2FBF0F5B2FBF0F605EB8305322374
:1024C00003EB0515B5FBF1F5B6FBF1F605F0F005EC
:1024D00005EB0615B2FBF0F6B2FBF0F0B0FBF1F045
:1024E0006FF01802504306EB800003EB0010B0FBC6
:1024F000F1F0216800F00F002844886070BD0000F2
:102500000038014081628285C28500214164222118
:1025100080F84210016921B10168CA6842F48072F2
:10252000CA6001684A6942F001024A610068C168F4
:1025300041F02001C160002070472DE9F843984622
:1025400017460D460446089E24E0701C22D0FEF774
:10255000F9F8A0EB0800B0421AD8CEB12068C168E3
:10256000490717D5802D15D0402D13D00168C943D8
:1025700009070FD401680025406800902046FFF746
:10258000DDFE0820606484F840500120BDE8F88337
:102590000320FBE72068006835EA000004D0002033
:1025A000B842D2D00020F1E70120F9E770B50D4D17
:1025B0002C783CB10120FDF7A9FF2878844201D195
:1025C00000F014F8084D2C78002C09D00120FDF7FC
:1025D0009DFF2878844203D1BDE8704000F006B822
:1025E00070BD0000120000201300002070B5354CB3
:1025F0000025E07890B132230C2233A13648FFF752
:102600008BFA04213548FEF78FF8354935A000F0E4
:1026100085F8E5701E213248FDF7AFFDA07800284F
:102620004ED02F4832380078212810D0122814D0EC
:10263000882818D0132819D014281DD0152821D087
:10264000162825D0662829D099282CD030E0A088DB
:10265000217A80B2FDF758FE2AE0A088217A80B264
:10266000FDF7BEFD24E000F0D5FA21E0A088217A34
:1026700080B200F0C3F91BE0A088217A80B200F09C
:1026800000FA15E0A088217A80B200F03DFA0FE050
:10269000A088217A80B200F07AFA09E06068C82840
:1026A00006DA0A3003E060680A2801DD0A38606053
:1026B000A570BDE870400A481E213238FDF75DBDA7
:1026C00070BD00001000002068656C6C6F2C737585
:1026D0006D6D657200000000B4020020000C014026
:1026E0002E03002074302E7478743D22257322FF4F
:1026F000FFFF00000148FEF767BF00002402002032
:102700000148FEF761BF00006C0200200148FEF79F
:102710005BBF0000B4020020FEE700000FB4054BD1
:1027200010B503A9044A029800F028F810BC5DF81F
:1027300014FB0000352900081C0000200907090EC1
:10274000002804DB00F1E02080F80014704700F05E
:102750000F0000F1E02080F8141D704702E008C867
:10276000121F08C1002AFAD170477047002001E00B
:1027700001C1121F002AFBD1704700002DE9FF4F55
:102780008BB09A460F460546002606E025280BD05A
:1027900052460D9990476D1C761C28780028F5D17B
:1027A0000FB03046BDE8F08F0024A04601226049FA
:1027B00000E0044315F8013F203B02FA03F0084211
:1027C000F7D128782E2817D115F8010F44F004040A
:1027D0002A280ED06FF02F022878A0F130010929A5
:1027E0000AD808EB880102EB410100EB01086D1CDF
:1027F000F2E757F8048B6D1C287869283ED006DC78
:102800000028CDD063280BD0642804D136E073288B
:1028100010D075284BD052460D999047761C85E014
:1028200017F8040B8DF8000000208DF80100E94630
:10283000012003E057F8049B4FF0FF3061074FF091
:10284000000401D40AE0641C44450DDA8442FADB3A
:1028500019F804100029F6D106E0641C8442FCDB60
:1028600019F804100029F8D1264404E019F8010BE6
:1028700052460D999047641EF8D257E001CF4FF0B1
:102880000A0B002802DA40422D2102E0210504D57E
:102890002B218DF82410012103E0E10705D0202130
:1028A000F7E70DF1200908910CE00021F9E701CFCD
:1028B0004FF00A0BF9E75946FDF76AFC01F13002C7
:1028C00009F8012D0028F6D1ADEB090000F1200B2D
:1028D000600701D44FF00108D84502DDA8EB0B00DA
:1028E00000E000208046002406E009A85246005D72
:1028F0000D999047641C761C08988442F5DB04E02F
:10290000302052460D999047761CB8F10001A8F18D
:102910000108F5DC05E019F8010B52460D999047C6
:10292000761CBBF10001ABF1010BF4DC6D1C34E74C
:102930000928010013B54FF6FF73012269460248CA
:10294000FFF7EAF800981CBD6C020020FEF704F8BF
:10295000FFF756FBFFF732F9FFF7F8FAFFF712FB24
:10296000FFF7BCFAFFF7D6FAFFF728FBFFF786F967
:10297000FFF7B8F9FFF71CFAFFF74CFAFFF75EF91B
:10298000012210491048FFF791F801220F49104821
:10299000FFF78CF832230C220EA10D48FFF7BCF88C
:1029A00000211048FEF7B2FD0F48FEF795FB0FA07F
:1029B000FFF7B4FE4FF4FA60FDF7A8FDFFF7F6FD50
:1029C0006420F9E7100000206C02002011000020B4
:1029D000B402002068656C6C6F2C73756D6D657248
:1029E00000000000BC00002074000020696E6974C3
:1029F0005F73756363657373FFFFFF00F8B50124B0
:102A00000D4606460B460246002120460094FDF77F
:102A10005AFC0A20FDF77AFD2B463246002102209F
:102A20000094FDF750FC0A20FDF770FD2B4632465E
:102A3000012103200094FDF746FC0A20FDF766FD06
:102A40002B463246012104200094FDF73CFC0A206D
:102A5000FDF75CFD0120FDF720FC0A20FDF756FD87
:102A60000220FDF71AFC0A20FDF750FD0320FDF7B8
:102A700014FC0A20FDF74AFDBDE8F8400420FDF7EC
:102A80000CBCF8B501240D4606460B46024621460D
:102A900020460094FDF717FC0A20FDF737FD2B4672
:102AA0003246012102200094FDF70DFC0A20FDF7BB
:102AB0002DFD2B463246002103200094FDF703FC38
:102AC0000A20FDF723FD2B46324600210420009406
:102AD000FDF7F9FB0A20FDF719FD0120FDF7DDFBED
:102AE0000A20FDF713FD0220FDF7D7FB0A20FDF7B2
:102AF0000DFD0320FDF7D1FB0A20FDF707FDBDE822
:102B0000F8400420FDF7C9BBF8B501240D46064680
:102B10000B460246214620460094FDF7D4FB0A20CE
:102B2000FDF7F4FC2B463246012102200094FDF70C
:102B3000CAFB0A20FDF7EAFC2B463246012103209E
:102B40000094FDF7C0FB0A20FDF7E0FC2B4632465F
:102B5000012104200094FDF7B6FB0A20FDF7D6FC06
:102B60000120FDF79AFB0A20FDF7D0FC0220FDF7BB
:102B700094FB0A20FDF7CAFC0320FDF78EFB0A2018
:102B8000FDF7C4FCBDE8F8400420FDF786BBF8B5AE
:102B900001240D4606460B460246002120460094BD
:102BA000FDF791FB0A20FDF7B1FC2B4632460021D0
:102BB00002200094FDF787FB0A20FDF7A7FC2B46B7
:102BC0003246002103200094FDF77DFB0A20FDF72B
:102BD0009DFC2B463246002104200094FDF773FB38
:102BE0000A20FDF793FC0120FDF757FB0A20FDF7B3
:102BF0008DFC0220FDF751FB0A20FDF787FC032026
:102C0000FDF74BFB0A20FDF781FCBDE8F8400420EE
:102C1000FDF743BB10B500210120FDF726FB0A207C
:102C2000FDF774FC00210220FDF71FFB0A20FDF7D1
:102C30006DFC00210320FDF718FB0A20FDF766FC60
:102C400000210420FDF711FBBDE810400A20FDF72C
:102C50005DBC000008B50021ADF800100A49C0F3C2
:102C6000080008604FF4FA52091F08E0BDF80000A0
:102C7000401CADF80000BDF80000904202D8086882
:102C80000006F3D508BD00000438014038B50546FC
:102C900000200C468DF800008DF800009DF8000023
:102CA000A04208D29DF80000285CFFF7D3FF9DF8F2
:102CB0000000401CF0E738BD0102020304050607CE
:102CC00008090A0B0C0D0E0F101000000000000088
:102CD00000000102030406070809000000000102C9
:102CE00003040000042D0008000000202000000064
:102CF0005C270008242D0008200000204007000069
:102D00006C27000801000000100000000000000017
:102D100000127A00000000001E00000014000000F5
:042D200000000000AF
:0400000508000131BD
:00000001FF
